{
  "contractName": "File",
  "abi": [
    {
      "constant": true,
      "inputs": [],
      "name": "creator",
      "outputs": [
        {
          "name": "",
          "type": "address"
        }
      ],
      "payable": false,
      "stateMutability": "view",
      "type": "function"
    },
    {
      "constant": true,
      "inputs": [],
      "name": "verification",
      "outputs": [
        {
          "name": "",
          "type": "address"
        }
      ],
      "payable": false,
      "stateMutability": "view",
      "type": "function"
    },
    {
      "constant": true,
      "inputs": [
        {
          "name": "",
          "type": "uint256"
        }
      ],
      "name": "viewers",
      "outputs": [
        {
          "name": "",
          "type": "address"
        }
      ],
      "payable": false,
      "stateMutability": "view",
      "type": "function"
    },
    {
      "constant": true,
      "inputs": [],
      "name": "student",
      "outputs": [
        {
          "name": "",
          "type": "address"
        }
      ],
      "payable": false,
      "stateMutability": "view",
      "type": "function"
    },
    {
      "constant": true,
      "inputs": [],
      "name": "v",
      "outputs": [
        {
          "name": "",
          "type": "address"
        }
      ],
      "payable": false,
      "stateMutability": "view",
      "type": "function"
    },
    {
      "inputs": [
        {
          "name": "studentRelated",
          "type": "address"
        },
        {
          "name": "verificationAddress",
          "type": "address"
        }
      ],
      "payable": false,
      "stateMutability": "nonpayable",
      "type": "constructor"
    },
    {
      "anonymous": false,
      "inputs": [
        {
          "indexed": false,
          "name": "file",
          "type": "bytes"
        },
        {
          "indexed": false,
          "name": "uploader",
          "type": "address"
        }
      ],
      "name": "NewEncryptedFile",
      "type": "event"
    },
    {
      "anonymous": false,
      "inputs": [
        {
          "indexed": false,
          "name": "viewer",
          "type": "address"
        }
      ],
      "name": "NewViewer",
      "type": "event"
    },
    {
      "anonymous": false,
      "inputs": [
        {
          "indexed": false,
          "name": "viewer",
          "type": "address"
        }
      ],
      "name": "DelViewer",
      "type": "event"
    },
    {
      "constant": false,
      "inputs": [
        {
          "name": "file",
          "type": "bytes"
        }
      ],
      "name": "uploadEncryptedFile",
      "outputs": [],
      "payable": false,
      "stateMutability": "nonpayable",
      "type": "function"
    },
    {
      "constant": true,
      "inputs": [],
      "name": "getNumberOfFiles",
      "outputs": [
        {
          "name": "",
          "type": "uint256"
        }
      ],
      "payable": false,
      "stateMutability": "view",
      "type": "function"
    },
    {
      "constant": true,
      "inputs": [
        {
          "name": "index",
          "type": "uint256"
        }
      ],
      "name": "viewFile",
      "outputs": [
        {
          "name": "",
          "type": "string"
        }
      ],
      "payable": false,
      "stateMutability": "view",
      "type": "function"
    },
    {
      "constant": false,
      "inputs": [
        {
          "name": "viewer",
          "type": "address"
        }
      ],
      "name": "addViewer",
      "outputs": [],
      "payable": false,
      "stateMutability": "nonpayable",
      "type": "function"
    },
    {
      "constant": false,
      "inputs": [
        {
          "name": "viewer",
          "type": "address"
        }
      ],
      "name": "delViewer",
      "outputs": [],
      "payable": false,
      "stateMutability": "nonpayable",
      "type": "function"
    }
  ],
  "bytecode": "0x608060405234801561001057600080fd5b506040516040806111778339810180604052810190808051906020019092919080519060200190929190505050816000806101000a81548173ffffffffffffffffffffffffffffffffffffffff021916908373ffffffffffffffffffffffffffffffffffffffff16021790555033600160006101000a81548173ffffffffffffffffffffffffffffffffffffffff021916908373ffffffffffffffffffffffffffffffffffffffff16021790555060033390806001815401808255809150509060018203906000526020600020016000909192909190916101000a81548173ffffffffffffffffffffffffffffffffffffffff021916908373ffffffffffffffffffffffffffffffffffffffff1602179055505060036000809054906101000a900473ffffffffffffffffffffffffffffffffffffffff1690806001815401808255809150509060018203906000526020600020016000909192909190916101000a81548173ffffffffffffffffffffffffffffffffffffffff021916908373ffffffffffffffffffffffffffffffffffffffff1602179055505080600260006101000a81548173ffffffffffffffffffffffffffffffffffffffff021916908373ffffffffffffffffffffffffffffffffffffffff160217905550600260009054906101000a900473ffffffffffffffffffffffffffffffffffffffff16600560006101000a81548173ffffffffffffffffffffffffffffffffffffffff021916908373ffffffffffffffffffffffffffffffffffffffff1602179055505050610f17806102606000396000f3006080604052600436106100a4576000357c0100000000000000000000000000000000000000000000000000000000900463ffffffff16806302d05d3f146100a9578063354ff66b146101005780634ffe2a8b146101435780635155cb161461019a5780635e44e85b14610207578063601f8cf514610270578063699450e8146102b35780637c2efcba1461030a578063bbef8ae014610361578063fbc6577514610407575b600080fd5b3480156100b557600080fd5b506100be610432565b604051808273ffffffffffffffffffffffffffffffffffffffff1673ffffffffffffffffffffffffffffffffffffffff16815260200191505060405180910390f35b34801561010c57600080fd5b50610141600480360381019080803573ffffffffffffffffffffffffffffffffffffffff169060200190929190505050610458565b005b34801561014f57600080fd5b506101586105c2565b604051808273ffffffffffffffffffffffffffffffffffffffff1673ffffffffffffffffffffffffffffffffffffffff16815260200191505060405180910390f35b3480156101a657600080fd5b506101c5600480360381019080803590602001909291905050506105e8565b604051808273ffffffffffffffffffffffffffffffffffffffff1673ffffffffffffffffffffffffffffffffffffffff16815260200191505060405180910390f35b34801561021357600080fd5b5061026e600480360381019080803590602001908201803590602001908080601f0160208091040260200160405190810160405280939291908181526020018383808284378201915050505050509192919290505050610626565b005b34801561027c57600080fd5b506102b1600480360381019080803573ffffffffffffffffffffffffffffffffffffffff1690602001909291905050506107e5565b005b3480156102bf57600080fd5b506102c861097f565b604051808273ffffffffffffffffffffffffffffffffffffffff1673ffffffffffffffffffffffffffffffffffffffff16815260200191505060405180910390f35b34801561031657600080fd5b5061031f6109a4565b604051808273ffffffffffffffffffffffffffffffffffffffff1673ffffffffffffffffffffffffffffffffffffffff16815260200191505060405180910390f35b34801561036d57600080fd5b5061038c600480360381019080803590602001909291905050506109ca565b6040518080602001828103825283818151815260200191508051906020019080838360005b838110156103cc5780820151818401526020810190506103b1565b50505050905090810190601f1680156103f95780820380516001836020036101000a031916815260200191505b509250505060405180910390f35b34801561041357600080fd5b5061041c610b3a565b6040518082815260200191505060405180910390f35b600160009054906101000a900473ffffffffffffffffffffffffffffffffffffffff1681565b600080600090506000809054906101000a900473ffffffffffffffffffffffffffffffffffffffff1673ffffffffffffffffffffffffffffffffffffffff163373ffffffffffffffffffffffffffffffffffffffff1614156104b957600190505b600160009054906101000a900473ffffffffffffffffffffffffffffffffffffffff1673ffffffffffffffffffffffffffffffffffffffff163373ffffffffffffffffffffffffffffffffffffffff16141561051457600190505b6001151581151514151561052757600080fd5b600091505b6003805490508210156105bd578273ffffffffffffffffffffffffffffffffffffffff1660038381548110151561055f57fe5b9060005260206000200160009054906101000a900473ffffffffffffffffffffffffffffffffffffffff1673ffffffffffffffffffffffffffffffffffffffff1614156105b0576105af82610bf3565b5b818060010192505061052c565b505050565b600260009054906101000a900473ffffffffffffffffffffffffffffffffffffffff1681565b6003818154811015156105f757fe5b906000526020600020016000915054906101000a900473ffffffffffffffffffffffffffffffffffffffff1681565b60008060009150600090505b6003805490508110156106be5760038181548110151561064e57fe5b9060005260206000200160009054906101000a900473ffffffffffffffffffffffffffffffffffffffff1673ffffffffffffffffffffffffffffffffffffffff163373ffffffffffffffffffffffffffffffffffffffff1614156106b157600191505b8080600101915050610632565b600115158215151415156106d157600080fd5b600483908060018154018082558091505090600182039060005260206000200160009091929091909150908051906020019061070e929190610e46565b50507fa4b5a79e4349134cb1dd1622c04469d1e3d77983b62c4defbd94f905aae7eb21833360405180806020018373ffffffffffffffffffffffffffffffffffffffff1673ffffffffffffffffffffffffffffffffffffffff168152602001828103825284818151815260200191508051906020019080838360005b838110156107a557808201518184015260208101905061078a565b50505050905090810190601f1680156107d25780820380516001836020036101000a031916815260200191505b50935050505060405180910390a1505050565b60008090506000809054906101000a900473ffffffffffffffffffffffffffffffffffffffff1673ffffffffffffffffffffffffffffffffffffffff163373ffffffffffffffffffffffffffffffffffffffff16141561084457600190505b600160009054906101000a900473ffffffffffffffffffffffffffffffffffffffff1673ffffffffffffffffffffffffffffffffffffffff163373ffffffffffffffffffffffffffffffffffffffff16141561089f57600190505b600115158115151415156108b257600080fd5b60038290806001815401808255809150509060018203906000526020600020016000909192909190916101000a81548173ffffffffffffffffffffffffffffffffffffffff021916908373ffffffffffffffffffffffffffffffffffffffff160217905550507f6b1891280437981f6afe880464a58308fb1ea4dee4e2a1a1bef1af2e809099cb82604051808273ffffffffffffffffffffffffffffffffffffffff1673ffffffffffffffffffffffffffffffffffffffff16815260200191505060405180910390a15050565b6000809054906101000a900473ffffffffffffffffffffffffffffffffffffffff1681565b600560009054906101000a900473ffffffffffffffffffffffffffffffffffffffff1681565b606060008060009150600090505b600380549050811015610a64576003818154811015156109f457fe5b9060005260206000200160009054906101000a900473ffffffffffffffffffffffffffffffffffffffff1673ffffffffffffffffffffffffffffffffffffffff163373ffffffffffffffffffffffffffffffffffffffff161415610a5757600191505b80806001019150506109d8565b60011515821515141515610a7757600080fd5b610b31600485815481101515610a8957fe5b906000526020600020018054600181600116156101000203166002900480601f016020809104026020016040519081016040528092919081815260200182805460018160011615610100020316600290048015610b275780601f10610afc57610100808354040283529160200191610b27565b820191906000526020600020905b815481529060010190602001808311610b0a57829003601f168201915b5050505050610cce565b92505050919050565b6000806000809150600090505b600380549050811015610bd357600381815481101515610b6357fe5b9060005260206000200160009054906101000a900473ffffffffffffffffffffffffffffffffffffffff1673ffffffffffffffffffffffffffffffffffffffff163373ffffffffffffffffffffffffffffffffffffffff161415610bc657600191505b8080600101915050610b47565b60011515821515141515610be657600080fd5b6004805490509250505090565b7f3125cf3e5f1a0fb4f5467b5a73a320bbfbc52dc8de85b4d4ad566c85bb8b7631600382815481101515610c2357fe5b9060005260206000200160009054906101000a900473ffffffffffffffffffffffffffffffffffffffff16604051808273ffffffffffffffffffffffffffffffffffffffff1673ffffffffffffffffffffffffffffffffffffffff16815260200191505060405180910390a1600381815481101515610c9e57fe5b9060005260206000200160006101000a81549073ffffffffffffffffffffffffffffffffffffffff021916905550565b606080600080849250600091505b60028351811515610ce957fe5b04821015610e3b578282815181101515610cff57fe5b9060200101517f010000000000000000000000000000000000000000000000000000000000000090047f01000000000000000000000000000000000000000000000000000000000000000290508282600185510303815181101515610d6057fe5b9060200101517f010000000000000000000000000000000000000000000000000000000000000090047f0100000000000000000000000000000000000000000000000000000000000000028383815181101515610db957fe5b9060200101907effffffffffffffffffffffffffffffffffffffffffffffffffffffffffffff1916908160001a905350808383600186510303815181101515610dfe57fe5b9060200101907effffffffffffffffffffffffffffffffffffffffffffffffffffffffffffff1916908160001a9053508180600101925050610cdc565b829350505050919050565b828054600181600116156101000203166002900490600052602060002090601f016020900481019282601f10610e8757805160ff1916838001178555610eb5565b82800160010185558215610eb5579182015b82811115610eb4578251825591602001919060010190610e99565b5b509050610ec29190610ec6565b5090565b610ee891905b80821115610ee4576000816000905550600101610ecc565b5090565b905600a165627a7a72305820268ada0b577d7dc27a21ccfe809058b4dd3b13a6d1e173ca7af4416edce65c9a0029",
  "source": "pragma solidity 0.4.24;\n\nimport \"./Verification.sol\";\n\n\n\ncontract File {\n    /* the student of the file*/\n    address public student;\n    /* the creator of the contract*/\n    address public creator;\n    /* the related verification contract address*/\n    address public verification;\n    /* the viewers list */\n    address[] public viewers;\n    /* the encrytped bytes*/\n    bytes[] private  encryptedFiles;\n\t\t\n\n\n    event NewEncryptedFile(bytes file, address uploader);\n    event NewViewer(address viewer);\n    event DelViewer(address viewer);\n\n\t\tVerification public v ;\n\n    /**\n     * modifier\n     * \n     * only viewers\n     */\n    modifier onlyViewers {\n        bool has = false;\n        for (uint i = 0; i < viewers.length; i++) {\n            if (msg.sender == viewers[i]) {\n                has = true;\n            }\n        }\n        require(has == true);\n        _;\n    }\n\n    /**\n     * modifier\n     *\n     * only student or creator\n     */\n    modifier onlyStudentOrCreator {\n        bool has = false;\n        if (msg.sender == student) {\n            has = true;\n        }\n        if (msg.sender == creator) {\n            has = true;\n        }\n        require(has == true);\n        _;\n    }\n\n    /**\n     * @notice Constructor function \n     * @dev Initializes creator\\student and set the first viewer the creator\n     * and deploy verification contract and init verification\n     * @param studentRelated   the owner student of the file \n     */\n    constructor (\n\t\t\t\t\t\taddress studentRelated, \n\t\t\t\t\t\taddress verificationAddress\n\t\t) public {\n        student = studentRelated;\n        creator = msg.sender;\n        viewers.push(msg.sender);\n        viewers.push(student);\n        verification = verificationAddress;\n\t\t\t\tv = Verification(verification);\n    }\n\n    /**\n     * @notice decode the encrypted file \n     * @param encryptedFile the encrypted file \n     * @return string\n     */\n    function _decodeFile(bytes encryptedFile)\n    private pure returns (bytes){\n\t\t\t  bytes memory output = encryptedFile; \n        for (uint i = 0; i < output.length / 2; i++) {\n            byte t = output[i];\n            output[i] =\n                output[output.length - 1 - i];\n            output[output.length - 1 - i] = t;\n        }\n\t\t\t\treturn output;\n    }\n\n    /**\n\t\t *  \n     */\n    function uploadEncryptedFile(bytes file) public onlyViewers{\n//\t\t\t\tbytes32 sha3data = keccak256(_decodeFile(file));\n//\t\t\t\taddress[2] memory addrs= v.verifyFile(sha3data);\n//\t\t\t  require(addrs[0] != 0x0 );\n//\t\t\t\trequire(addrs[1] != 0x0 );\n//\t\t\t\t_decodeFile(file);\n        encryptedFiles.push(file);\n        emit NewEncryptedFile(file, msg.sender);\n    }\n\n\n\t\t\n\t\t\n\t\t/**\n\t\t * @notice get the number of files\n\t\t * @return length of encryptedFile\n\t\t */\n    function getNumberOfFiles() public\n    view onlyViewers returns(uint) {\n        return encryptedFiles.length;\n    }\n\n    /**\n\t\t * @notice view file by index\n\t\t * @param index   index of file\n\t\t * @return file   file string\n\t\t */\n    function viewFile(uint index) public\n    view onlyViewers returns(string) {\n        return string(\n\t\t\t\t\t\t_decodeFile(encryptedFiles[index])\n\t\t\t\t);\n    }\n\n    /**\n     * @notice add a viewer by creator or student\n     * @param viewer the viewer\n     */\n    function addViewer(address viewer)\n    public onlyStudentOrCreator {\n        viewers.push(viewer);\n        emit NewViewer(viewer);\n    }\n\n    /**\n     * @notice del a viewer by index\n     * @param index   the viewer index of the array\n     */\n    function _delViewerByIndex(uint index)\n    private {\n        emit DelViewer(viewers[index]);\n        delete viewers[index];\n    }\n\n    /**\n\t\t * @notice delete del a viewer\n\t\t * @param viewer   the viewer index of the array\n\t\t */\n    function delViewer(address viewer)\n    public onlyStudentOrCreator {\n        for (uint i = 0; i < viewers.length; i++) {\n            if(viewers[i] == viewer) {\n\t\t\t\t\t\t\t_delViewerByIndex(i);\n\t\t\t\t\t\t}\n        }\n    }\n\n}\n",
  "sourcePath": "/Users/gannicus/EducationDApp/contracts/EducationContracts/contracts/File.sol",
  "compiler": {
    "name": "solc",
    "version": "0.4.24+commit.e67f0147.Emscripten.clang"
  },
  "schemaVersion": "2.0.1",
  "updatedAt": "2018-08-16T03:06:27.878Z"
}