{
  "contractName": "Verification",
  "abi": [
    {
      "constant": true,
      "inputs": [],
      "name": "creator",
      "outputs": [
        {
          "name": "",
          "type": "address"
        }
      ],
      "payable": false,
      "stateMutability": "view",
      "type": "function"
    },
    {
      "constant": true,
      "inputs": [
        {
          "name": "",
          "type": "uint256"
        }
      ],
      "name": "educators",
      "outputs": [
        {
          "name": "",
          "type": "address"
        }
      ],
      "payable": false,
      "stateMutability": "view",
      "type": "function"
    },
    {
      "constant": true,
      "inputs": [],
      "name": "student",
      "outputs": [
        {
          "name": "",
          "type": "address"
        }
      ],
      "payable": false,
      "stateMutability": "view",
      "type": "function"
    },
    {
      "constant": true,
      "inputs": [
        {
          "name": "",
          "type": "bytes32"
        },
        {
          "name": "",
          "type": "uint256"
        }
      ],
      "name": "EducatorOfFile",
      "outputs": [
        {
          "name": "",
          "type": "address"
        }
      ],
      "payable": false,
      "stateMutability": "view",
      "type": "function"
    },
    {
      "inputs": [
        {
          "name": "studentRelated",
          "type": "address"
        }
      ],
      "payable": false,
      "stateMutability": "nonpayable",
      "type": "constructor"
    },
    {
      "anonymous": false,
      "inputs": [
        {
          "indexed": false,
          "name": "sha3File",
          "type": "bytes32"
        },
        {
          "indexed": false,
          "name": "signers",
          "type": "address[2]"
        }
      ],
      "name": "NewFile",
      "type": "event"
    },
    {
      "anonymous": false,
      "inputs": [
        {
          "indexed": false,
          "name": "educator",
          "type": "address"
        }
      ],
      "name": "NewEducator",
      "type": "event"
    },
    {
      "anonymous": false,
      "inputs": [
        {
          "indexed": false,
          "name": "educator",
          "type": "address"
        }
      ],
      "name": "DelEducator",
      "type": "event"
    },
    {
      "constant": false,
      "inputs": [
        {
          "name": "sha3file",
          "type": "bytes32"
        },
        {
          "name": "edu0_v",
          "type": "uint8"
        },
        {
          "name": "edu0_r",
          "type": "bytes32"
        },
        {
          "name": "edu0_s",
          "type": "bytes32"
        },
        {
          "name": "edu1_v",
          "type": "uint8"
        },
        {
          "name": "edu1_r",
          "type": "bytes32"
        },
        {
          "name": "edu1_s",
          "type": "bytes32"
        }
      ],
      "name": "_insertFile",
      "outputs": [],
      "payable": false,
      "stateMutability": "nonpayable",
      "type": "function"
    },
    {
      "constant": false,
      "inputs": [
        {
          "name": "sha3file",
          "type": "bytes32"
        },
        {
          "name": "stu_v",
          "type": "uint8"
        },
        {
          "name": "stu_r",
          "type": "bytes32"
        },
        {
          "name": "stu_s",
          "type": "bytes32"
        },
        {
          "name": "edu0_v",
          "type": "uint8"
        },
        {
          "name": "edu0_r",
          "type": "bytes32"
        },
        {
          "name": "edu0_s",
          "type": "bytes32"
        },
        {
          "name": "edu1_v",
          "type": "uint8"
        },
        {
          "name": "edu1_r",
          "type": "bytes32"
        },
        {
          "name": "edu1_s",
          "type": "bytes32"
        }
      ],
      "name": "addMultisigFile",
      "outputs": [],
      "payable": false,
      "stateMutability": "nonpayable",
      "type": "function"
    },
    {
      "constant": true,
      "inputs": [
        {
          "name": "sha3file",
          "type": "bytes32"
        }
      ],
      "name": "verifyFile",
      "outputs": [
        {
          "name": "",
          "type": "address[2]"
        }
      ],
      "payable": false,
      "stateMutability": "view",
      "type": "function"
    },
    {
      "constant": false,
      "inputs": [
        {
          "name": "educator",
          "type": "address"
        }
      ],
      "name": "addEducator",
      "outputs": [],
      "payable": false,
      "stateMutability": "nonpayable",
      "type": "function"
    },
    {
      "constant": false,
      "inputs": [
        {
          "name": "educator",
          "type": "address"
        }
      ],
      "name": "delEducator",
      "outputs": [],
      "payable": false,
      "stateMutability": "nonpayable",
      "type": "function"
    }
  ],
  "bytecode": "0x608060405234801561001057600080fd5b50604051602080610fa183398101806040528101908080519060200190929190505050806000806101000a81548173ffffffffffffffffffffffffffffffffffffffff021916908373ffffffffffffffffffffffffffffffffffffffff16021790555033600160006101000a81548173ffffffffffffffffffffffffffffffffffffffff021916908373ffffffffffffffffffffffffffffffffffffffff16021790555060023390806001815401808255809150509060018203906000526020600020016000909192909190916101000a81548173ffffffffffffffffffffffffffffffffffffffff021916908373ffffffffffffffffffffffffffffffffffffffff1602179055505050610e778061012a6000396000f300608060405260043610610099576000357c0100000000000000000000000000000000000000000000000000000000900463ffffffff16806302d05d3f1461009e5780630e8dc50d146100f5578063247030e9146101785780634b67d54b146101e55780634d7e7be414610252578063699450e8146102955780638bb12b70146102ec578063c6bc8c8e14610367578063da5e9fe514610413575b600080fd5b3480156100aa57600080fd5b506100b3610456565b604051808273ffffffffffffffffffffffffffffffffffffffff1673ffffffffffffffffffffffffffffffffffffffff16815260200191505060405180910390f35b34801561010157600080fd5b506101766004803603810190808035600019169060200190929190803560ff16906020019092919080356000191690602001909291908035600019169060200190929190803560ff1690602001909291908035600019169060200190929190803560001916906020019092919050505061047c565b005b34801561018457600080fd5b506101a36004803603810190808035906020019092919050505061071f565b604051808273ffffffffffffffffffffffffffffffffffffffff1673ffffffffffffffffffffffffffffffffffffffff16815260200191505060405180910390f35b3480156101f157600080fd5b50610214600480360381019080803560001916906020019092919050505061075d565b6040518082600260200280838360005b8381101561023f578082015181840152602081019050610224565b5050505090500191505060405180910390f35b34801561025e57600080fd5b50610293600480360381019080803573ffffffffffffffffffffffffffffffffffffffff1690602001909291905050506107f9565b005b3480156102a157600080fd5b506102aa610921565b604051808273ffffffffffffffffffffffffffffffffffffffff1673ffffffffffffffffffffffffffffffffffffffff16815260200191505060405180910390f35b3480156102f857600080fd5b50610325600480360381019080803560001916906020019092919080359060200190929190505050610946565b604051808273ffffffffffffffffffffffffffffffffffffffff1673ffffffffffffffffffffffffffffffffffffffff16815260200191505060405180910390f35b34801561037357600080fd5b506104116004803603810190808035600019169060200190929190803560ff16906020019092919080356000191690602001909291908035600019169060200190929190803560ff16906020019092919080356000191690602001909291908035600019169060200190929190803560ff1690602001909291908035600019169060200190929190803560001916906020019092919050505061098a565b005b34801561041f57600080fd5b50610454600480360381019080803573ffffffffffffffffffffffffffffffffffffffff169060200190929190505050610b41565b005b600160009054906101000a900473ffffffffffffffffffffffffffffffffffffffff1681565b60008060008060009150600090505b600280549050811015610517576002818154811015156104a757fe5b9060005260206000200160009054906101000a900473ffffffffffffffffffffffffffffffffffffffff1673ffffffffffffffffffffffffffffffffffffffff163373ffffffffffffffffffffffffffffffffffffffff16141561050a57600191505b808060010191505061048b565b6001151582151514151561052a57600080fd5b6105636080604051908101604052808d6000191681526020018c60ff1681526020018b6000191681526020018a60001916815250610ccf565b935061059e6080604051908101604052808d6000191681526020018960ff168152602001886000191681526020018760001916815250610ccf565b925060408051908101604052808573ffffffffffffffffffffffffffffffffffffffff1673ffffffffffffffffffffffffffffffffffffffff1681526020018473ffffffffffffffffffffffffffffffffffffffff1673ffffffffffffffffffffffffffffffffffffffff16815250600360008d60001916600019168152602001908152602001600020906002610636929190610d69565b507fade37ded31c74e7b0f15b042574110761b7355c3adeb8ca58c509bdf83900b7f8b60408051908101604052808773ffffffffffffffffffffffffffffffffffffffff1673ffffffffffffffffffffffffffffffffffffffff1681526020018673ffffffffffffffffffffffffffffffffffffffff1673ffffffffffffffffffffffffffffffffffffffff1681525060405180836000191660001916815260200182600260200280838360005b838110156106ff5780820151818401526020810190506106e4565b505050509050019250505060405180910390a15050505050505050505050565b60028181548110151561072e57fe5b906000526020600020016000915054906101000a900473ffffffffffffffffffffffffffffffffffffffff1681565b610765610de6565b6003600083600019166000191681526020019081526020016000206002806020026040519081016040528092919082600280156107ed576020028201915b8160009054906101000a900473ffffffffffffffffffffffffffffffffffffffff1673ffffffffffffffffffffffffffffffffffffffff16815260200190600101908083116107a3575b50505050509050919050565b600160009054906101000a900473ffffffffffffffffffffffffffffffffffffffff1673ffffffffffffffffffffffffffffffffffffffff163373ffffffffffffffffffffffffffffffffffffffff1614151561085557600080fd5b60028190806001815401808255809150509060018203906000526020600020016000909192909190916101000a81548173ffffffffffffffffffffffffffffffffffffffff021916908373ffffffffffffffffffffffffffffffffffffffff160217905550507f067244cd7b365a3368c051741948e5736355a7444ecda7408c46ff72c61099fa81604051808273ffffffffffffffffffffffffffffffffffffffff1673ffffffffffffffffffffffffffffffffffffffff16815260200191505060405180910390a150565b6000809054906101000a900473ffffffffffffffffffffffffffffffffffffffff1681565b60036020528160005260406000208160028110151561096157fe5b016000915091509054906101000a900473ffffffffffffffffffffffffffffffffffffffff1681565b60008060009150600090505b600280549050811015610a22576002818154811015156109b257fe5b9060005260206000200160009054906101000a900473ffffffffffffffffffffffffffffffffffffffff1673ffffffffffffffffffffffffffffffffffffffff163373ffffffffffffffffffffffffffffffffffffffff161415610a1557600191505b8080600101915050610996565b60011515821515141515610a3557600080fd5b610a6e6080604051908101604052808e6000191681526020018d60ff1681526020018c6000191681526020018b60001916815250610ccf565b73ffffffffffffffffffffffffffffffffffffffff166000809054906101000a900473ffffffffffffffffffffffffffffffffffffffff1673ffffffffffffffffffffffffffffffffffffffff16141515610ac857600080fd5b600160009054906101000a900473ffffffffffffffffffffffffffffffffffffffff1673ffffffffffffffffffffffffffffffffffffffff163373ffffffffffffffffffffffffffffffffffffffff16141515610b2457600080fd5b610b338c89898989898961047c565b505050505050505050505050565b6000600160009054906101000a900473ffffffffffffffffffffffffffffffffffffffff1673ffffffffffffffffffffffffffffffffffffffff163373ffffffffffffffffffffffffffffffffffffffff16141515610b9f57600080fd5b600090505b600280549050811015610ccb578173ffffffffffffffffffffffffffffffffffffffff16600282815481101515610bd757fe5b9060005260206000200160009054906101000a900473ffffffffffffffffffffffffffffffffffffffff1673ffffffffffffffffffffffffffffffffffffffff161415610cbe577f2b7fbc31a5fcb0045d581cc5c577dd5b659d6e9f08f76656f0369e1ecf5382da82604051808273ffffffffffffffffffffffffffffffffffffffff1673ffffffffffffffffffffffffffffffffffffffff16815260200191505060405180910390a1600281815481101515610c9057fe5b9060005260206000200160006101000a81549073ffffffffffffffffffffffffffffffffffffffff02191690555b8080600101915050610ba4565b5050565b600060018260000151836020015184604001518560600151604051600081526020016040526040518085600019166000191681526020018460ff1660ff1681526020018360001916600019168152602001826000191660001916815260200194505050505060206040516020810390808403906000865af1158015610d58573d6000803e3d6000fd5b505050602060405103519050919050565b8260028101928215610dd5579160200282015b82811115610dd45782518260006101000a81548173ffffffffffffffffffffffffffffffffffffffff021916908373ffffffffffffffffffffffffffffffffffffffff16021790555091602001919060010190610d7c565b5b509050610de29190610e08565b5090565b6040805190810160405280600290602082028038833980820191505090505090565b610e4891905b80821115610e4457600081816101000a81549073ffffffffffffffffffffffffffffffffffffffff021916905550600101610e0e565b5090565b905600a165627a7a7230582083f45b0db5929634779fc4137afe04f1da3051da0f8f672e884dd5a6c5cca4790029",
  "source": "pragma solidity 0.4.24;\n\ncontract Verification {\n    address public student;\n    address public creator;\n    address[] public educators;\n    mapping(bytes32 => address[2]) public EducatorOfFile;\n\n    event NewFile(bytes32 sha3File, address[2] signers);\n    event NewEducator(address educator);\n\t\tevent DelEducator(address educator);\n\n    /**\n     * an encoded RSA signature form of data\n     */\n    struct Sig {\n        bytes32 file;\n        uint8 v;\n        bytes32 r;\n        bytes32 s;\n    }\n\n\n    /**\n     * modifier\n     * \n     * make function can only call by one of educators\n     */\n    modifier onlyEducator {\n        bool has = false;\n        for (uint i = 0; i < educators.length; i++) {\n            if (msg.sender == educators[i]) {\n                has = true;\n            }\n        }\n        require(has == true);\n        _;\n    }\n\n    /**\n     * modifier\n     *\n     * only creator\n     */\n    modifier onlyCreator {\n        require(msg.sender == creator);\n        _;\n    }\n\n    /**\n     * @notice Constructor function \n     * \n     * @dev Initializes contract with creator and the \n     * student which this contract belongs to\n     *\n     * @param studentRelated   the student that this contract belongs to\n     */\n    constructor(address studentRelated) public {\n        student = studentRelated;\n        creator = msg.sender;\n        educators.push(msg.sender);\n    }\n\n\n    /**\n     * decode a rsa signature and return the address\n     */\n    function _sigDecode(Sig s) private pure returns(address) {\n        return ecrecover(s.file, s.v, s.r, s.s);\n    }\n\n\t\tfunction _insertFile(\n\t\t    bytes32 sha3file,\n        uint8 edu0_v,\n\t\t\t\tbytes32 edu0_r,\n\t\t\t\tbytes32 edu0_s,\n        uint8 edu1_v,\n        bytes32 edu1_r,\n        bytes32 edu1_s\n\t\t) public onlyEducator {\n\t      address edu0 = _sigDecode(\n\t\t\t\t\t\t\t\tSig(sha3file, edu0_v, edu0_r, edu0_s)\n\t\t\t\t);\n\t\t\t\taddress edu1 = _sigDecode(\n\t\t\t\t\t\t\t\tSig(sha3file, edu1_v, edu1_r, edu1_s)\n\t\t\t\t);\n        EducatorOfFile[sha3file] = [edu0, edu1]; \n        emit NewFile(sha3file, [edu0, edu1]);\n\t\t}\n\n    /**\n     * @notice add multisig file\n     *\n     * @dev param mySigned must be the sender himself, \n     * and the sender must be one of the educators\n     * \n     * @param sha3file    the file to be signed\n     * @param stu_v       student's v of rsa\n     * @param stu_r       student's r of rsa\n     * @param stu_s       student's s of rsa\n     * @param edu0_v         my v of rsa\n     * @param edu0_r        my r of rsa\n     * @param edu0_s        my s of ras\n\t\t * @param edu1_v      v\n\t\t * @param edu1_r      r\n\t\t * @param edu1_s      s\n     */\n    function addMultisigFile(\n        bytes32 sha3file,\n        uint8 stu_v,\n        bytes32 stu_r,\n        bytes32 stu_s,\n\t\t\t\tuint8 edu0_v,\n\t\t\t\tbytes32 edu0_r,\n\t\t\t\tbytes32 edu0_s,\n        uint8 edu1_v,\n        bytes32 edu1_r,\n        bytes32 edu1_s\n    ) public onlyEducator {\n        require(student == _sigDecode(Sig(sha3file, stu_v, stu_r, stu_s)));\n        require(msg.sender == creator);\n\t      _insertFile(\n\t\t\t\t\tsha3file,\n\t\t\t\t\tedu0_v,\n\t\t\t\t\tedu0_r,\n\t\t\t\t\tedu0_s,\n\t\t\t\t\tedu1_v,\n\t\t\t\t\tedu1_r,\n\t\t\t\t\tedu1_s\n\t\t\t\t);\t\t            \n\t\t\t\treturn;\n\t\t}\n\n\t\t/*\n\t\t * @notice view signers of sha3file\n\t\t * @param sha3file\n\t\t * @return signers\n\t\t */\n\t\tfunction verifyFile(bytes32 sha3file) public view returns(address[2]) {\n\t\t\treturn EducatorOfFile[sha3file];\n\t\t}\n\n    /**\n     * @notice add an educator by creator\n     * @param educator    the educator to be added\n     */\n    function addEducator(\n        address educator\n    ) public onlyCreator {\n        educators.push(educator);\n        emit NewEducator(educator);\n    }\n\n    /**\n     * @notice delete educator\n     */\n    function delEducator(\n        address educator\n    ) public onlyCreator {\n        for (uint i = 0; i < educators.length; i++) {\n            if (educators[i] == educator) {\n                emit DelEducator(educator);\n                delete educators[i];\n            }\n        }\n    }\n\n}\n",
  "sourcePath": "/Users/gannicus/EducationDApp/contracts/EducationContracts/contracts/Verification.sol",
  "compiler": {
    "name": "solc",
    "version": "0.4.24+commit.e67f0147.Emscripten.clang"
  },
  "schemaVersion": "2.0.1",
  "updatedAt": "2018-08-16T03:06:27.869Z"
}